:400000000010002011000000090300000903000080B500AF00F07CF980B584B000AF021CFB1D1A70224A3B1C0B3312781A70214A3B1C0A3312781A701F4B1B68013BFB609A
:400040001AE01E4B1868391C0B31FA68131C5B009B18C31801331B780B70184B1868391C0A31FA68131C5B009B18C31802331B780B70FB68013BFB60FB68002B0ADB0F4B59
:400080001968FA68131C5B009B185B5CFA1D12789A42D6D90A4B3A1C0B3212781A60094B3A1C0A3212781A60BD4604B080BDC046CCF1FF0FCDF1FF0FAC170000CC00002027
:4000C0001CFF0B4020FF0B4080B500AF164B164A12688021C9020A431A603020FFF79CFF124B134A1278D2B21A60052001F09EFA104B35221A60104B10221A600F4B10224E
:400100001A600F4B802212061A600E4B802212061A60054B8022D2021A600B4B802212061A60BD4680BDC04600010B4028FF0B40FDF1FF0F2CFF0B40080202400C0202404E
:4001400008010B4004010B400000024080B582B000AF72B6FB1D00221A7023E0FB1D1A78131C5B009B185B002A4A9B183B603B681A78597809020A43997809040A43DB7874
:400180001B0613431A1C3B6819795B791B020B439BB2101C191C00F03FF9FB1DFA1D127801321A70FB1D1B78012BD7D91A4BFF2212061A60194B1A4A1A601A4BC0221A6030
:4001C000194BD82212041A60184B11221A60184B184A1A60184B992212041A60174B992212041A60164B164A1278D2B202210A43D2B21A70124B124A1278D2B206210A43DF
:40020000D2B21A70FFF760FF00F016F9BD4602B080BDC046A0170000000001400C000140FFEE0F00000004400800044000030440080304408E6D000000500F4030500F4094
:4002400000700F4010B5064C2378002B07D10548002802D0044800E000BF0121217010BDE0000020000000007C17000008B5084B002B03D00748084900E000BF07480168C0
:40028000002903D0064A002A00D0904708BDC046000000007C170000E4000020C80000200000000090B583B000AF00F0DFF800F033FD00E0C046FC1D172001F0A5F8031CE6
:4002C0002370FB1D1B78032BF4D8FB1D1B78181C01F0C0F8FB1D1A780A4B101C191C01F05BF90A2001F07EF9FB1D1B78181C01F0CBF8322001F076F9FB1D1B78181C00F0F3
:40030000FFFFD7E78017000080B500AFFEE7C04680B586B000AF254B7B61254B3B61234B7B61234B3B6132E03B691B68FB603B695B68BB603B699B683B6000237B600CE093
:40034000FB681A68BB681A60BB680433BB60FB680433FB607B6804337B607A683B689A42EED13B69DB683B6000237B6008E0BB6800221A60BB680433BB607B6804337B60EB
:400380007A683B689A42F2D13B6910333B617B695A1E9341DBB27A69013A7A61002BC3D101F0B6F9FFF77EFFFEE7C046010000001418000080B582B000AF00237B600FE0F3
:4003C0007B68032B04D8104B7A689200D35800E00E4B0F4A796889008B507B6801337B607B682F2BECD9FFF7B1FE0A4B00221A608023DB058022D205126801210A431A6056
:40040000BD4602B080BDC046000000000903000000000020C000002080B582B000AF786039607A683B68101C00211A1C01F096F9BD4602B080BDC04680B500AFBD4680BD8D
:4004400080B500AF00F028F8BD4680BD80B500AF054B054A1268802109060A431A6000F017F8BD4680BDC0460000074080B500AF064B1B78002B04D1044B01221A70FFF78E
:40048000DFFFFFF7E3FFBD4680BDC046FC00002080B500AFBD4680BD80B500AF124B134A1A60134B134A1A60134B144A1A60144B07221A60134B114A1A60134B00221A604E
:4004C000124B00221A60124B00221A60114B00221A60114B00221A60104B00221A60104B00221A60BD4680BD000007400700000120000740010000800003074007010080E3
:40050000040307400002074004020740880E0740C80E0740480F0740080F0740C80F0740880F074080B584B000AF78600A4B1B68FB60FA68094B1340FB607B689A06C023F8
:400540001B051340FA681343FB60034BFA681A60BD4604B080BDC04620000740FFFFFFF380B500AF0120FFF7DDFFBD4680BDC04680B582B000AF0A1CBB1D011C19807B1DFB
:400580001A7002E0012001F051F801F01DF8031C002BF7D0FFF7E4FF01F07CF8F02001F08FF8BB1D1B881B0A9BB21A1CFF231340181C01F085F8BB1D1A88FF231340181C3A
:4005C00001F07EF87B1D1B78181C01F079F8BD4602B080BD80B584B000AF021CBB1D1A8002E0012001F022F800F0EEFF031C002BF7D0FFF7B5FF01F04DF80F2001F060F8E5
:40060000BB1D1B881B0A9BB2181C01F059F8BB1D1A88FF231340181C01F052F8002001F04FF802E0012001F001F800F0CDFF031C002BF7D001F01EF8031CBB6007E001F0CE
:4006400009F8031CFB6001F015F8031CBB60BB68002BF4D1FB68DBB2181CBD4604B080BD80B584B000AF021C3960BB1D1A800023FB6010E0FB689AB2BB1D1B88D3189AB28C
:400680003968FB68CB181B78101C191CFFF770FFFB680133FB60FB68052BEBD9BD4604B080BDC04680B584B000AF021C3960BB1D1A803B1CBB600023FB6010E0FB689AB2E7
:4006C000BB1D1B88D3189AB2B968FB68CB181B78101C191CFFF74CFFFB680133FB60FB68032BEBD9BD4604B080BDC04680B582B000AF0A1CBB1D011C19803B1D1A803B1D57
:400700001B881B0A9BB2DBB2BA1D1288101C191CFFF72EFFBB1D1B8801339AB23B1D1B88DBB2101C191CFFF723FFBD4602B080BD80B584B000AF021CBB1D1A80BB1D1B8811
:40074000181CFFF747FF031C1A1C3B1C0E331A803B1C0E333A1C0E32128812021A80BB1D1B8801339BB2181CFFF734FF031C191C3B1C0E333A1C0E3212888A181A803B1C04
:400780000E331B88181CBD4604B080BD80B584B000AF3960BB1D011C19803B1D1A800023FB6010E0FB689AB2BB1D1B88D3189AB2FB683968CB181B78101C191CFFF7D8FE86
:4007C000FB680133FB603B1D1A88FB689A42E9DCBD4604B080BDC04680B582B000AF78607B680920191CFFF73BFFBD4602B080BD80B582B000AF78607B680120191CFFF7A1
:4008000051FFBD4602B080BD80B582B000AF78607B680520191CFFF745FFBD4602B080BD80B582B000AF78607B680F20191CFFF739FFBD4602B080BD80B582B000AF021C96
:40084000FB1D1A70FB1D1B780020191CFFF790FEBD4602B080BDC04680B582B000AF021CFB1D1A70FB1D1B781520191CFFF780FEBD4602B080BDC04680B582B000AF021CCF
:40088000FB1D1A70FB1D1B781A20191CFFF770FEBD4602B080BDC04680B582B000AF021CFB1D1A70FB1D1B781B20191CFFF760FEBD4602B080BDC04680B582B000AF0A1CA7
:4008C000FB1D011C1970BB1D1A70FB1D1B789BB21B029BB28022D2009B189AB2BB1D1B78101C191CFFF744FEBD4602B080BDC04680B582B000AF0A1CFB1D011C1970BB1D35
:400900001A70FB1D1B789BB21B029BB2054A9B189AB2BB1D1B78101C191CFFF729FEBD4602B080BD0104000080B582B000AF021CFB1D1A70FB1D1B789BB21B029BB2054A16
:400940009B189BB2181CFFF745FE031C181CBD4602B080BD0104000080B582B000AF0A1CFB1D011C1970BB1D1A70FB1D1B789BB21B029BB2054A9B189AB2BB1D1B78101C1D
:40098000191CFFF7F5FDBD4602B080BD0204000080B582B000AF021CFB1D1A70FB1D1B789BB21B029BB2054A9B189BB2181CFFF711FE031C181CBD4602B080BD0204000017
:4009C00080B582B000AF021CFB1D1A70FB1D1B789BB21B029BB2054A9B189BB2181CFFF7F9FD031C181CBD4602B080BD0304000080B582B000AF0A1CFB1D011C19703B1DB2
:400A00001A80FB1D1B789BB21B029BB2054A9B189AB23B1D1B88101C191CFFF767FEBD4602B080BD0404000080B582B000AF021CFB1D1A70FB1D1B789BB21B029BB28422DD
:400A4000D2009B189BB2181CFFF772FE031C181CBD4602B080BDC04680B582B000AF0A1CFB1D011C19703B1D1A80FB1D1B789BB21B029BB2054A9B189AB23B1D1B88101CFC
:400A8000191CFFF733FEBD4602B080BD2404000080B582B000AF021CFB1D1A70FB1D1B789BB21B029BB2054A9B189BB2181CFFF73FFE031C181CBD4602B080BD2404000065
:400AC00080B584B000AF021C3960FB1D1A700023FB603B68DBB2FA1D1278101C191CFFF707FF05E0FB680133FB60012000F07AFDFB1D1B78181CFFF717FF031C002B02D073
:400B0000FB687C2BEED9FB68181CBD4604B080BD90B585B000AF021CFB1D1A703B1C0C3300221A803B1C0E3300221A803C1C0C34FB1D1B78181CFFF777FF031C23803B1CCE
:400B40000C331B88002B08D03C1C0E34FB1D1B78181CFFF769FF031C23803A1C0C323B1C0E3312881B889A42E0D13B1C0E331B88181CBD4605B090BD80B586B000AFBA6059
:400B80001A1C3B1C0F3318703B1C0C331980BB1D1A803B1C0F331B78181CFFF779FF031C191C3B1C16333A1C0C3212888A181A803B1C14333A1C163212885205520D1A80EB
:400BC0003B1C0F331B789BB2DB039AB23B1C14331B88D3189AB23B1C12338021C90152181A803B1C10333A1C14321288802109018A1A1A80BA1D3B1C103312881B889A428C
:400C000027D93B1C12331988BA683B1C10331B88081C111C1A1CFFF7B9FD3B1C0F331B789BB2DB039BB28022D2019B1899B23B1C10331B88BA68D218B81D3B1C103300888E
:400C40001B88C31A9BB2081C111C1A1CFFF79EFD0AE03B1C12331988BA68BB1D1B88081C111C1A1CFFF792FD3B1C1633391C1631BA1D098812888A181A803B1C0F331A781A
:400C80003B1C16331B88101C191CFFF7E5FEBD4606B080BD80B586B000AFF860B9607A603B60FA2000F09EFC8020FFF7C5FD0A2000F098FC00237B6107E07B69DBB2181C8C
:400CC00000F01EFB7B6901337B617B69032BF4DD5520FFF7E1FD5520FFF7CEFD3B68181CFFF786FD7B68181CFFF78EFD094B7A681A60FB68181CFFF76FFDBB68181CFFF7B7
:400D00008FFDFF20FFF7A8FD0020FFF77DFDBD4606B080BD1C01002080B584B000AF1F4B1B78002B01D1FFF7A1FB0A2000F05AFC1B4A1C4B101C191C00F0DAF8031C062B57
:400D400011D1184B00221A70164BDE225A70154BAD229A70134BC022DA70124BDE221A71104B00225A71104B181C00F023F8031CFB600E4B181C00F01DF8031CBB600C4B2D
:400D8000181C00F017F8031C7B600648F968BA687B68FFF77FFFBD4604B080BDFC000020B017000020010020C4170000D4170000E417000090B589B000AF78600023FB6181
:400DC00000237B610023BB6163E0FB697A68D3181B782F2B17D9FB697A68D3181B78392B11D87B69032B02DD01235B427BE0FB697A68D3181A78391C0C317B69CB181A70A0
:400E00007B6901337B61FB697A68D3181B782E2B06D0FB6901337A68D3181B78002B35D13A1C0C327B69D31800221A7000237B613A1C0832BB69D31800221A701AE03A1CF9
:400E40000832BB69D3181B781A1C9200D3185B00DAB2391C0C317B69CB181B78D318DBB2303BDAB2391C0831BB69CB181A707B6901337B613A1C0C327B69D3181B78002B6D
:400E8000DDD100237B61BB690133BB61FB690133FB61BB69032B07DCFC697B68181C00F066FC031C9C4290D3BB69042B02D001235B4218E03B1C08331B781A1C3B1C0833EF
:400EC0005B781B021B041B0CD2183B1C08339B781B04191CFF231B040B40D2183B1C0833DB781B06D318181CBD4609B090BDC04690B587B000AF786039600023FB600023F2
:400F00003B6100237B6161E13B697A68D3181B782F2B05D93B697A68D3181B78392B19D93B697A68D3181B78602B05D93B697A68D3181B78662B0DD93B697A68D3181B7852
:400F4000402B00D83DE13B697A68D3181B78462B00D936E17B693A68D2183B697968CB181B782F2199429B415B42DBB2396901313961002B17D03B697968CB18197839203D
:400F8000002388425B41DBB2396901313961002B09D03B697968CB181B78303BDBB23969013139614CE03B697968CB181B78602199429B415B42DBB2396901313961002B26
:400FC00017D03B697968CB1819786620002388425B41DBB2396901313961002B09D03B697968CB181B78573BDBB239690131396126E03B697968CB181B78402199429B4162
:401000005B42DBB2396901313961002B17D03B697968CB1819784620002388425B41DBB2396901313961002B09D03B697968CB181B78373BDBB239690131396100E00023B4
:4010400013707B693A68D3187A6939688A1812781201D2B21A703B697A68D3181B782F2B05D93B697A68D3181B78392B19D93B697A68D3181B78602B05D93B697A68D31837
:401080001B78662B0DD93B697A68D3181B78402B00D892E03B697A68D3181B78462B00D98BE07B693A68D2187B693968CB1819783B697868C3181B782F2098429B415B42B7
:4010C000DBB2386901303861002B17D03B697868C31818783924002384425B41DBB2386901303861002B09D03B697868C3181B78303BDBB23869013038614CE03B69786814
:40110000C3181B78602098429B415B42DBB2386901303861002B17D03B697868C31818786624002384425B41DBB2386901303861002B09D03B697868C3181B78573BDBB259
:4011400038690130386126E03B697868C3181B78402098429B415B42DBB2386901303861002B17D03B697868C31818784624002384425B41DBB2386901303861002B09D075
:401180003B697868C3181B78373BDBB238690130386100E00023CB18DBB213707B69042B0EDC3B697A68D3181B782D2B01D00623FB603B6901333B6102E00623FB6002E073
:4011C00001E00623FB607B6901337B617B69052B09DCFB68002B06D13B697A68D3181B78002B00D090E6FB68181CBD4607B090BD80B584B000AFFB1D18703B1D1980BB1DA4
:401200001A703B1C0F33FF221A700023BB601BE03B1C0F331B78FF2B13D13849BA68131C5B009B185B005B5C002B0AD1FB1D1B78042B02D1BB68002B03D03B1C0F33BA68EC
:401240001A70BB680133BB60BB68032BE0DD3B1C0F331B78FF2B4AD03B1C0F331A782749131C5B009B185B00FA1D12785A543B1C0F331A782149131C5B009B185B00BA1D6E
:40128000CB1812785A703B1C0F331A781B49131C5B009B185B003A1DCB1812885A803B1C0F331A781549131C5B009B185B00CB1800221A713B1C0F331A783B1D1B88101C1F
:4012C000191CFFF795FBFA1DBB1D12781B781343DBB23A1C0F321278101C191CFFF7ECFA3B1C0F331B78181C0121FFF7E9FB3B1C0F331B78181CBD4604B080BD0401002011
:4013000080B582B000AF021CFB1D1A70FB1D1B78032B1ED8FB1D1A780F49131C5B009B185B0000225A54FB1D1A780B49131C5B009B185B00CB1800225A70FB1D1B78181C5A
:401340001021FFF7BDFBFB1D1B78181CFF21FFF703FBBD4602B080BD0401002080B582B000AF021CFB1D1A70FB1D1B78181CFFF727FB031C173B5A425341DBB2181CBD4652
:4013800002B080BD90B585B000AF021CFB1D1A701C4B1B68181CFFF737FAFB1D1B78181C2021FFF78DFB3C1C0F34FB1D1B78181CFFF7EEFA031C23700BE0012000F012F961
:4013C0003C1C0F34FB1D1B78181CFFF7E1FA031C23703B1C0F331A781023134005D13B1C0F331A780A231340E7D0FB1D1B78181C1021FFF7B1FA0020FFF706FABD4605B088
:4014000090BDC0461C01002080B582B000AF021CBB1D1A80BB1D1B880120191C0022FFF7E7FE031C181CBD4602B080BD80B582B000AF021CFB1D1A70FB1D1B78032B05D8D7
:40144000FB1D1B78181C0221FFF73AFBBD4602B080BDC04680B582B000AF021CFB1D1A70FB1D1B78181CFFF7E1FF02E0012000F0B9F8FB1D1B78181CFFF770FF031C002B8A
:40148000F4D0BD4602B080BD80B582B000AF021CFB1D1A70FB1D1B78181C0821FFF710FBBD4602B080BDC04690B585B000AF3960FB1D011C19703B1D1A803A1C0E323B1D3F
:4014C0001B8898B280210901884201D980231B0113803C1C0B34FB1D1B78181CFFF770FA031C23703B1C0B331B78172B46D1FB1D1A782849131C5B009B185B005B5C012BBF
:401500003CD13B1C0C3300221A803B1C0B3317221A7011E03C1C0C34FB1D1B78181CFFF7F7FA031C23803C1C0B34FB1D1B78181CFFF746FA031C23703A1C0C323B1C0E3359
:4015400012881B889A4209D23B1C0B331B78172B04D13B1C0B331B781C2BDBD1FB1D19783A683B1C0E331B88081C0021FFF704FBFB1D1B78181CFFF705FF03E03B1C0E3309
:4015800000221A803B1C0E331B88181CBD4605B090BDC0460401002080B582B000AF021C3960FB1D1A703B68181C00F0E0F8031C9BB2FA1D11783A68081C111C1A1CFFF797
:4015C00073FFBD4602B080BD80B500AF044B1A68102313401B09DBB2181CBD4680BDC0460403044080B582B000AF786008E00C4B1B68181C00F07CF87B680A4A9B187B60C9
:401600007A6880231B029A42F1D8074B1B687A685343181C00F06CF8BD4602B080BDC046DC0000200080FFFFD400002080B582B000AF021CBB1D1A80BB1D1B88044A12782F
:401640005343181C00F054F8BD4602B080BDC046D800002080B582B000AF00237B60044B1B687B607B68181CBD4602B080BDC0464003074080B582B000AF054B1A680F2300
:4016800013407B607B68181CBD4602B080BDC0460803074080B500AF074B074A1268802149020A431A60044B034A1168034A0A401A60BD4680BDC04604030740FFFFFEFF32
:4016C00080B582B000AF7860C046064B1A680F231340082BF9D0044B7A681A60BD4602B080BDC0460802074040020740000000000230800804D0C0460138FDD1C046C0467E
:401700007047EFF3108072B6704780F31088704770B50E4B0E4D0024E81A85101E1CAC4204D0A100725890470134F8E700F060F80849094A0E1C541AA5100024AC4204D0DA
:40174000A300F05880470134F8E770BDFC170000FC170000FC1700000418000000B58218031C934202D019700133FAE700BD0023C25C0133002AFBD1581E70470000000019
:401780001B5B324A48656C6C6F2046726F6D204532466F724C6966652E636F6D0D0A000000300F40000400400F4000040400000030302D44452D41442D42452D45462D3022
:4017C000300000003139322E3136382E312E3130310000003235352E3235352E3235352E300000003139322E3136382E312E3100F8B5C046F8BC08BC9E4670476D02000047
:40180000B5030000F8B5C046F8BC08BC9E4670474502000028180000C800002018000000480000000000000000000000C0F1FF0F006CDC0280BB0000300000000000C05DCA
:401840000000000000000000000000000000000000000000000000000000000000000000000000000000000000000000000000000000000000000000000000000000000068
:401880000000000000000000000000000000000000000000000000000000000000000000000000000000000000000000000000000000000000000000000000000000000028
:4018C00000000000000000000000000000000000000000000000000000000000000000000000000000000000000000000000000000000000000000000000000000000000E8
:4019000000000000000000000000000000000000000000000000000000000000000000000000000000000000000000000000000000000000000000000000000000000000A7
:0200000490303A
:02000000AB9FB4
:0200000490402A
:200000000000000000000000000000000000000000000000000000000000000000000000E0
:0200000490501A
:0C000000000204C81193110104D0BD32AD
:0200000490600A
:0100000001FE
:00000001FF